:0A0000000C949C000C9400000C947A
:10000A0000000C9400000C9400000C9400000C9466
:10001A0000000C9400000C9400000C9400000C9456
:10002A0000000C9400000C9400000C9400000C9446
:10003A0000000C9400000C9400000C9400000C9436
:10004A0012010C9400000C9400000C9400000C9413
:10005A0000000C9400000C9400000C9400000C9416
:10006A0000000C9400000C9400000C9400000C9406
:10007A00000000000F0605000300000110008002C6
:10008A001001000310028004100300051004800010
:10009A001005020101000002000110008002100197
:1000AA0000031002800410030005100480061005E6
:1000BA000007100680001007020101000003030276
:1000CA0002000B007C00050000027E0003001C02F7
:1000DA008400040020028800040024028C0004002A
:1000EA002802900004002C029400040030029800B8
:1000FA00060034029C0003004A02A20004004E02D9
:10010A00A60004005202AA0004005602AE0004002F
:10011A005A02B20004005E02B60004006202BA008B
:10012A0004006602BE0008006A02C2000000F894D9
:10013A00EE27EFBBF1E0F5BFE5BF8DE0A2E0BB27FC
:10014A00ED938A95E9F780E094E0A0E0B1E0ED93C1
:10015A000197E9F7EAECF0E085919591009761F053
:10016A00A591B59105901590BF01F00105900D92EA
:10017A000197E1F7FB01F0CFE0E0EEBBEFEFEDBF57
:10018A00E4E0EEBFC0E0D2E00C94DF0176FC04C0EC
:10019A00E0E0AE22EBE05E2E08951A93E72DEF70B1
:1001AA001E2FF0E0E050FE4F4080E7E0E41511F02A
:1001BA00EAE002C058D1E8E05E2E1991089571D1A3
:1001CA00E82DA0E1B2E054D1003071F45BD121F402
:1001DA0063D1818001E007C05FD1A081A03111F411
:1001EA0001E001C01E5FF0CF15C05BD1E82DAAE384
:1001FA00B2E03ED1003071F445D121F44DD1818075
:10020A0001E007C049D1A081A03111F401E001C089
:10021A001E5FF0CF4BD1249608950A921A92FA9251
:10022A006A937A938A939A93AA93BA93EA93FA93DC
:10023A00EFB7EA93ECE3E6BD79B0E52DF0E030974D
:10024A0041F477FC03C0E1E05E2E02C00CD1A5DFC9
:10025A00A1C0E130A0E0FA0729F477FE02C0E2E08B
:10026A005E2E98C0E230A0E0FA0789F4EA2DE07029
:10027A00E768AE2E75FC02C0E3E05E2E74FC02C095
:10028A00E4E05E2E76FC02C0E7E05E2E83C0E33037
:10029A00A0E0FA0729F475FE02C0E5E05E2E7AC0F6
:1002AA00E430A0E0FA0729F474FE02C0E6E05E2E0C
:1002BA0071C0E530A0E0FA0791F481DFE82DF0E0A3
:1002CA00EC5CFD4FE081E295E07FEE0F3E2EEFE918
:1002DA00AE22A32876FC02C0E7E05E2E5BC0E630C1
:1002EA00A0E0FA0791F481DFE82DF0E0E659FD4F2E
:1002FA00E081EE0FEE0FEE0F6E2EE7EEAE22A6288D
:10030A0076FC02C0E7E05E2E45C0E730A0E0FA07BF
:10031A0019F476FC55243EC0E830A0E0FA07C9F487
:10032A0077FC02C0E1E05E2EAB2DBC2D1196EAE00F
:10033A00F0E0D8D0BE2ECF2EE72DEF7019F40B2C9B
:10034A000C2831F4EA2DEF6FEF77AE2EE9E05E2E3E
:10035A0021C0E930A0E0FA0739F4EA2DEF6FAE2E9A
:10036A005524BB24CC2416C0EA30A0E0FA0731F4A5
:10037A00EFEFAE22A428E8EFAE2A0CC0EB30A0E0E3
:10038A00FA0749F476FE06C0EFEFAE2AE7E04E2EF2
:10039A00A4285524FBDEA5B8E991EFBFF991E991AC
:1003AA00B991A9919991899179916991F990199045
:1003BA0009901895ECE1F2E0E0931002F093110233
:1003CA00A2E1B2E0E0E2F2E0ED93FC93A4E1B2E054
:1003DA00E4E2F2E0ED93FC93A6E1B2E0E8E2F2E0B7
:1003EA00ED93FC93A8E1B2E0ECE2F2E0ED93FC932A
:1003FA00AAE1B2E0E0E3F2E0ED93FC93EAE4F2E092
:10040A00E0933A02F0933B02ACE3B2E0EEE4F2E0AE
:10041A00ED93FC93AEE3B2E0E2E5F2E0ED93FC93F8
:10042A00A0E4B2E0E6E5F2E0ED93FC93A2E4B2E0E8
:10043A00EAE5F2E0ED93FC93A4E4B2E0EEE5F2E043
:10044A00ED93FC93A6E4B2E0E2E6F2E0ED93FC93CE
:10045A00A8E4B2E0E6E6F2E0ED93FC93EFEFAE2E0D
:10046A0055248824FFCFEA2DEF6FEF77AE2E08953B
:10047A00F0E0EE0FFF1FAE0FBF1F2D913C9110E071
:10048A0000E00895E72DE078AE2FE12FF0E0E20FCB
:10049A00F31FE081EA170895E12FF0E0E20FF31F5E
:1004AA0008953A932A931A930A9308953B812A81CD
:1004BA00198108810895F195E195F0400895002485
:1004CA00112490E1AA0FBB1F001C111C0E1A1F0A4F
:1004DA0018F40E0E1F1E01C0A1609A9599F7FD012E
:1004EA00D0010895E894B7FF04C0B195A195B04032
:1004FA006894F7FDE0DFE3DFFD010EF4DCDF089529
:00000001FF
