:0A0000000C943E000C9400000C94D8
:10000A0000000C9400000C9400000C9400000C9466
:10001A0000000C9400000C9400000C9400000C9456
:10002A0000000C9400000C9400000C9400000C9446
:10003A0000000C9400000C9400000C9400000C9436
:10004A005B000C9400000C9400000C9400000C94CB
:10005A0000000C9400000C9400000C9400000C9416
:10006A0000000C9400000C9400000C9400000C9406
:10007A000000F894EE27EFBBF1E0F5BFE5BF8DE095
:10008A00A2E0BB27ED938A95E9F780E094E0A0E02F
:10009A00B1E0ED930197E9F7E0E0EEBBEFEFEDBFDA
:1000AA00E4E0EEBFC0E0D2E00C946000EA93ECE337
:1000BA00E6BDE991189510E0E0E8E0936100E0E020
:1000CA00E0936100E1B9E2B9EFEFE4B9E5B9E0E044
:1000DA00E7B9E8B9EAB9EFEFEBB9E0E0E4BDE5E08A
:1000EA00E5BDECE3E6BDE0E0E7BDE8BDE0938000F6
:1000FA00E0938100E0938500E0938400E093870019
:10010A00E0938600E0938900E0938800E0938B00F7
:10011A00E0938A00E093B600E093B000E093B10068
:10012A00E093B200E093B300E093B400E1E0E0931F
:10013A006E00E0E0E0936F00E0937000E0936900E6
:10014A00EDBBE0936800E093C100E093C900E0E8EA
:10015A00E0BFE0E0E0937B00E0937F00E0937A0069
:10016A00ECBDE093BC007894E0E04899E1E01E2FF2
:10017A00103011F4EAEA01C0E5E5E5B9F5CFFFCFA1
:00000001FF
