:0E0000000C9463000C9400000C9400000C940F
:10000E0000000C9400000C9400000C9400000C9462
:10001E0000000C9400000C9400000C9400000C9452
:10002E0000000C9400000C9400000C9400000C9442
:10003E0000000C9400000C9400000C9492000C94A0
:10004E0000000C9400000C9400000C9400000C9422
:10005E0000000C9400000C9400000C9400000C9412
:10006E0000000C9400000C9400000C9400000000A2
:10007E000000000000000001010054000002010118
:10008E005401000301025402000001035403000155
:10009E000203080003007C0005000802840006002D
:1000AE000E028A0006001402900006001A02960044
:1000BE00040020029C000000F894EE27EFBBF1E054
:1000CE00F5BFE5BF8DE0A2E0BB27ED938A95E9F77A
:1000DE0080E094E0A0E0B1E0ED930197E9F7E0EA6B
:1000EE00F0E085919591009761F0A591B5910590FD
:1000FE001590BF01F00105900D920197E1F7FB01FC
:10010E00F0CFE0E0EEBBEFEFEDBFE4E0EEBFC0E01E
:10011E00D2E00C949700EA93ECE3E6BDE9911895D2
:10012E00E8E0F2E0E0930002F0930102A2E0B2E018
:10013E00EEE0F2E0ED93FC93A4E0B2E0E4E1F2E055
:10014E00ED93FC93A6E0B2E0EAE1F2E0ED93FC93CE
:10015E00E0E8E0936100E0E0E0936100E1B9E2B92C
:10016E00EFEFE4B9E5B9E0E0E7B9E8B9EAB9EFEFE6
:10017E00EBB9E0E0E4BDE5E0E5BDECE3E6BDE0E0D3
:10018E00E7BDE8BDE0938000E0938100E093850039
:10019E00E0938400E0938700E0938600E09389006B
:1001AE00E0938800E0938B00E0938A00E093B60022
:1001BE00E093B000E093B100E093B200E093B3009F
:1001CE00E093B400E1E0E0936E00E0E0E0936F00B6
:1001DE00E0937000E0936900EDBBE0936800E0935C
:1001EE00C100E093C900E0E8E0BFE0E0E0937B00EF
:1001FE00E0937F00E0937A00ECBDE093BC0078942E
:10020E00E9B1E1704E2EE62DA0E0B2E0F0E0EE0F87
:10021E00FF1FAE0FBF1F7D908C905524AA24AA20DD
:10022E00D1F421D0E081E41529F41DD06180E1E004
:10023E00AE2E10C0A72DB82DAC91BB27EE27A50D65
:10024E00BE1FA435E0E0BE0719F4E1E0AE2E02C0F9
:10025E0053945394E4CFE62DF0E0E05EFD4F3080F2
:10026E0035B8CECFFFCFE52DF0E0E70DF81D0895A0
:00000001FF
